:100000000C945D000C9485000C9485000C94850084
:100010000C9485000C9485000C9485000C9485004C
:100020000C9485000C9485000C9485000C9485003C
:100030000C9485000C9485000C9485000C9485002C
:100040000C943B0A0C9485000C94AC090C94860922
:100050000C9485000C9485000C9485000C9485000C
:100060000C9485000C9485000000000025002800F9
:100070002B0000000000240027002A0004040404D0
:100080000404040402020202020203030303030342
:10009000010204081020408001020408102001021F
:1000A00004081020000000080002010000030407FB
:1000B0000000000000000000CA1611241FBECFEF90
:1000C000D8E0DEBFCDBF12E0A0E0B1E0E2E1F5E3B1
:1000D00002C005900D92A636B107D9F723E0A6E637
:1000E000B2E001C01D92AA3EB207E1F710E0CDE5F3
:1000F000D0E004C02197FE010E94681ACC35D107D8
:10010000C9F70E9419130C94871A0C940000CF931E
:10011000DF931F92CDB7DEB76983DC01ED91FC91CF
:100120000280F381E02D41E050E0BE016F5F7F4F20
:1001300009950F90DF91CF910895DC01ED91FC912D
:10014000068CF78DE02D099591E089270895862F7B
:10015000089581E086270895089580E090E008954D
:1001600080E3FB0180833296842F82958F7090E12B
:10017000899F401911244A3014F4405D01C0495C44
:100180004293482F8111F0CF0895FC0184850C948F
:100190006A0BCF93DF931F92CDB7DEB741E050E0FB
:1001A000BE016F5F7F4FFC0184850E946A0B1816A9
:1001B00019061CF4898190E002C08FEF9FEF0F9029
:1001C000DF91CF910895FC018485843011F00C9467
:1001D000480B80E090E0089544E050E0BC018FE0DF
:1001E00090E00C94D80A08958CBD9DBD08958F921F
:1001F0009F92AF92BF92CF92DF92EF92FF920F93B6
:100200001F93CF936C015B017A01FC01C485C4305C
:1002100041F481E090E0F6019383828380E090E0F6
:100220004EC08A014130584010F000E018E080E5EF
:1002300090E00E94F4008C2F0E94FD124C0163E0BC
:1002400070E08C2F0E94580E873111F08C3121F410
:100250008016910660F302C000E010E080E590E0B7
:100260000E94F4009801A50160E070E08C2F0E94CC
:10027000981260E270E08C2F0E94671062E070E0DC
:100280008C2F0E94580E84FD10C063E070E08C2F0C
:100290000E94580E811104C08C2F0E94E00BB9CF30
:1002A00080E590E00E94F400E9CF40E162E070E078
:1002B0008C2F0E94D60B012B09F4ABCFC701CF9135
:1002C0001F910F91FF90EF90DF90CF90BF90AF9074
:1002D0009F908F900895CF92DF92FF920F931F937C
:1002E000CF93DF938C01EB016A01FC01848584309C
:1002F00009F07BC0F12C8F2D0E94BD0B811103C032
:10030000F801F48607C08B7F8831D1F3F394F4E0D1
:10031000FF12F1CFF8018485843009F466C0209182
:100320000001309101012F5F3F4F11F420E030ECCC
:10033000309301012093000140910001509101018F
:1003400061E00E947710F801F4848A818F3F51F4B4
:100350008B818F3F91F48C818F3F79F48D818F3F1A
:1003600061F440C0811109C08B81811106C08C816C
:10037000811103C08D818823A9F1C114D10491F1A9
:1003800080E590E00E94F400BE016E5F7F4F8F2DEC
:1003900090E0982F882744E050E0845F9B4F0E94B4
:1003A000D80A4D2D60E170E08F2D0E94D60B4C2DA8
:1003B00061E170E08F2D0E94D60B64E070E08F2D1C
:1003C0000E946710C8010E94B60E873189F061E073
:1003D00070E080E090E00E94F509C8010E94B60E2E
:1003E0008111F0CF84E0F801848780E090E002C0C2
:1003F00081E090E0DF91CF911F910F91FF90DF900E
:10040000CF9008952F923F924F925F926F927F927A
:100410008F929F92AF92BF92CF92DF92EF92FF9214
:100420000F931F93CF93DF93CDB7DEB765970FB6CA
:10043000F894DEBF0FBECDBF7C016B014A01FB010A
:10044000DB018D918111FDCF20E030E080E090E074
:100450005AE041914423F9F0843091054CF54E3235
:1004600069F42F3F310509F01CF5D401A80FB91F1D
:1004700012962C93019620E030E0EBCF529FB00112
:10048000539F700D1124242F440F330B2053310937
:10049000260F371FDECF2F3F310509F04CF4843093
:1004A000910534F4F401E80FF91F228381E021C0A3
:1004B000F70142815381648175818091A0039091FD
:1004C000A103A091A203B091A303481759076A079B
:1004D0007B0709F428C10E942F0A8701085F1F4F7C
:1004E0006F7077277C5FC8010E942C0E813019F055
:1004F00080E090E0F0C18FEC91E09A838983F7016E
:1005000082819381A481B5818B839C83AD83BE83DB
:1005100045E350E0BE016F5F7F4FC8010E94600D50
:10052000892B19F4C12CD12CF9C00E942F0AF70194
:100530007783668342E050E0B7016A5F7F4FC8016E
:100540000E94280D81E090E09A83898342E050E088
:10055000BE016F5F7F4FC8010E94280D80E091E0CF
:100560009A83898342E050E0BE016F5F7F4FC801EC
:100570000E94280D1A82198242E050E0BE016F5F8E
:100580007F4FC8010E94280D42E050E0BE016F5F1E
:100590007F4FC8010E94280D42E050E0BE016F5F0E
:1005A0007F4FC8010E94280D2601F2018081882317
:1005B00029F1C6015C01FC0120810196211116C0C0
:1005C000250135016C187D081614170494F46D8606
:1005D00041E050E0BE01635F7F4FC8010E94280DDB
:1005E000A301B601C8010E94280D03C02E3211F7E5
:1005F000E7CF6501FFEFCF1ADF0AD7CF1D8641E0B5
:1006000050E0BE01635F7F4FC8010E94280DC12CDE
:10061000DD24D394DA82C98242E050E0BE016F5FEC
:100620007F4FC8010E94280DDA82C98242E050E063
:10063000BE016F5F7F4FC8010E94280DC8010E9454
:100640007E0E892B09F46ECF83E0A82EB12C3401E5
:10065000F2E06F0E711C0E942F0A1B012C01C801D1
:100660000E94D50C18161906A4F00E942F0ADC016E
:10067000CB0182199309A409B50989389341A105D1
:10068000B105D0F462E370E080E090E00E94F509EB
:10069000E6CFF7014281538164817581818D928D0E
:1006A000A38DB48D481759076A077B0741F4858DE0
:1006B000968DC59721F406C02FEF3FEF25C02EEF92
:1006C0003FEF22C0F70181A192A10C970CF400C169
:1006D0004CE050E0BE016F5F7F4FC8010E948D0C5F
:1006E0008B819C819827892798279A8B898BF70182
:1006F0004681578129813A8142175307B9F0C801D1
:100700000E94F40B2CEF3FEF6901F1E0AF1AB10842
:1007100029F02FEFC216D20609F49DCFC8010E941E
:10072000170EC601D8C08EEF9FEFD5C097FFE7CF59
:100730008F709270892B31F0C8010E94F40B2BEF5F
:100740003FEFE2CFCF80D884DC24CD24DC24C11459
:10075000D10431F4C8010E94F40B2AEF3FEFD4CF4B
:10076000812C912C8D819E81982789279827881626
:10077000990640F541E050E0BE01635F7F4FC8013C
:100780000E948D0C8D85811113C08D858111F2CF52
:10079000C8010E94AC0CC8010E94AC0CC8010E94A8
:1007A000AC0CC8010E94AC0CFFEF8F1A9F0ADACF85
:1007B0008D859FEF980F9D87882339F3C8010E948C
:1007C000AC0CF6CF812C912C41E050E0BE016D5E67
:1007D0007F4FC8010E948D0C8B89982F907C61F40B
:1007E000882371F08B899FEF980F9B8B882341F0B2
:1007F000C8010E94AC0CF6CFC8010E94AC0C1B8A49
:100800008B898111E1CF42E050E0BE01615F7F4FF3
:10081000C8010E948D0C42E050E0BE01635F7F4F33
:10082000C8010E948D0CC8010E94AC0CC8010E9436
:10083000AC0CC8010E94AC0CC8010E94AC0C42E098
:1008400050E0BE016F5E7F4FC8010E948D0C8F8506
:10085000988981159140F1F42D853E853227232713
:10086000322721303105B1F489899A898115944064
:1008700031F0C8010E94F40B27EF3FEF45CF44E071
:1008800050E0B301C8012C8B3D8B0E948D0C2C894C
:100890003D893ACF412C512C89899A8998278927FB
:1008A00098274816590638F4C8010E94AC0C8FEFFF
:1008B000481A580AF1CFEFEF8E1A9E0A8C149D0445
:1008C00009F082CFC8010E94F40B26EF3FEF1CCF46
:1008D0002DEF3FEF19CF65960FB6F894DEBF0FBE30
:1008E000CDBFDF91CF911F910F91FF90EF90DF90DF
:1008F000CF90BF90AF909F908F907F906F905F90C0
:100900004F903F902F900895CF92DF92EF92FF92F9
:100910000F931F93CF93DF93CDB7DEB7AF970FB68B
:10092000F894DEBF0FBECDBF7C016A010FEC11E071
:100930001A8309831C861B8688EE93E0A0E0B0E052
:100940008D879E87AF87B88B81E591E09A878987ED
:1009500084E08D8B198F088F1A8E1B8E1C8E1D8E36
:100960001DA30CA31EA21FA218A619A6809198036E
:1009700090919903A0919A03B0919B038CA79DA796
:10098000AEA7BFA78B839C83AD83BE8318861F82CF
:10099000AE014C5D5F4FCE0101960E940202813094
:1009A0009105B1F4D701ED91FC910684F785E02D16
:1009B0001BA70AA78EA19FA1A8A5B9A58CA79DA733
:1009C000AEA7BFA7A601BE01665D7F4FC70109950F
:1009D000AF960FB6F894DEBF0FBECDBFDF91CF91BB
:1009E0001F910F91FF90EF90DF90CF9008952F927D
:1009F0003F924F925F926F927F928F929F92AF92AF
:100A0000BF92DF92EF92FF920F931F93CF93DF93EA
:100A1000CDB7DEB7E4970FB6F894DEBF0FBECDBFFB
:100A20007C011A012B0139010E942F0A4B015C0144
:100A30008701095B1F4FC8010E94D50C18161906C3
:100A4000A4F00E942F0ADC01CB0188199909AA0998
:100A5000BB09281639064A065B06F0F062E370E02F
:100A600080E090E00E94F509E6CF42E250E0BE014E
:100A70006F5F7F4FC8010E948D0C8981823031F4F5
:100A8000F801858996898334910541F0D12CC801FC
:100A90000E94F40B8D2D5FC18FEF5DC16D817E8152
:100AA0008F8198850E94611A4B015C01F30160837C
:100AB00071838283938346E050E0B701685F7F4F84
:100AC000CE014D960E94731A892B99F4F70180810B
:100AD0009181A281B38188169906AA06BB0648F0C7
:100AE00084819581A681B78188159905AA05BB05E2
:100AF00028F4C8010E94F40B80E02DC189899A89ED
:100B0000AB89BC89F70186879787A08BB18B8EEC68
:100B1000A82EB12CC8010E94AC0CF1E0AF1AB108AC
:100B2000C9F7D12CC70182969AA789A7F701B69673
:100B3000FCA7EBA708969EA78DA73C974F018E9622
:100B400098AB8FA73897FAABE9AB1701F6E12F0EF8
:100B5000311CCA979CAB8BABF801818D928D181616
:100B600019060CF094CFC8010E94AC0C8333910598
:100B700009F4CBC0FCF481309105C9F11CF4892B38
:100B800059F3DDC083309105D1F1069709F0D7C044
:100B9000C8010E94AC0C5C0144E050E06BA97CA948
:100BA000C8010E948D0C412C512CBB24F4E0AF1ADB
:100BB000B10840C08A33910509F47BC03CF4853309
:100BC000910569F0C69709F440C0B9C08B3391050F
:100BD00009F485C08F3F910509F4BECFB0C0C801AC
:100BE0000E94AC0CC8010E94AC0CD82EB5CFC80135
:100BF0000E94AC0C44E050E069A97AA93AC0C8014F
:100C00000E94AC0C5C0144E050E0B101C8010E94BC
:100C10008D0C412C512CBB2494E0A91AB1084A1424
:100C20005B040CF099CFC8010E94AC0CEFEF4E1A98
:100C30005E0AF5CF4A145B040CF08ECFC8010E9407
:100C4000AC0C8FEF481A580AF5CFC8010E94AC0CC3
:100C5000B82EF701828D811110C0838D81110DC0D6
:100C6000848D81110AC0858D811107C044E050E058
:100C7000B401C8010E948D0C6FCFEFA5F8A9408088
:100C8000518062807380B401CE0183960E94760900
:100C90008DA19EA1AFA1B8A584159505A605B705A0
:100CA00029F3BB2009F458CFC8010E94AC0CBA94B8
:100CB000F8CFC8010E94AC0C44E050E06BA57CA5C5
:100CC000C8010E948D0CF70166A177A180A591A5AE
:100CD0000E94611A66A377A380A791A73DCFC801A0
:100CE0000E94AC0C44E050E06DA57EA5C8010E94B6
:100CF0008D0CF70162A573A584A595A50E94611AC4
:100D000062A773A784A795A727CFC8010E94AC0C40
:100D100044E050E069A57AA5C8010E948D0CF70156
:100D200062A173A184A195A10E94611A62A373A319
:100D300084A395A366A777A780AB91AB0DCFC8011D
:100D40000E94AC0CB82EBB2009F406CFC8010E944B
:100D5000AC0CBA94F8CFE4960FB6F894DEBF0FBE91
:100D6000CDBFDF91CF911F910F91FF90EF90DF905A
:100D7000BF90AF909F908F907F906F905F904F90BB
:100D80003F902F9008957F928F929F92AF92BF9243
:100D9000CF92DF92EF92FF920F931F93CF93DF9347
:100DA000CDB7DEB7A6970FB6F894DEBF0FBECDBFA6
:100DB0008C01762E942E852E20E2B22ECE01019645
:100DC0007C01FC012B2D11922A95E9F78FEC91E023
:100DD0009AA389A38FEF8BA38CA38DA38EA3680105
:100DE00087E4C80ED11C43E450E0BE016F5D7F4F25
:100DF000C6010E94600D019609F4BFC081E089839D
:100E00008A8386E0A82EAB821C82F80164817581FA
:100E1000868197810E94611A6D837E838F83988774
:100E200089869A8680E890E09C878B874CE150E029
:100E3000B701C6010E94280DF7012B2D11922A95AA
:100E4000E9F7480188E0880E911CF401D701019070
:100E50000D92AA94E1F740E150E0B701C6010E946B
:100E6000280DF7011192BA94E9F796E0A92EB12C5A
:100E700040E250E0B701C6010E94280DF1E0AF1A30
:100E8000B108B1F783E6898392E89A8393E59B835F
:100E90008C8385E38D8381E08E837F829DE39887B9
:100EA00097E099878A8786E0F401DE011B9601901E
:100EB0000D928A95E1F78CE0898B8A8B67ED71E062
:100EC000CE0143960E94801AF8014385BE01675EF9
:100ED0007F4FC8010E94B000F8014485BE01655EE5
:100EE0007F4FC8010E94B000F8014585BE01635ED6
:100EF0007F4FC8010E94B0004EE150E0B701C6012B
:100F00000E94280DF3E07F121EC082E3898384E0F3
:100F10008A83F80196859B8397859C8390899D831E
:100F200091899E8396E39F838887828D8987838DAD
:100F30008A87848D8B87858D8C874CE050E0B70144
:100F4000C6010E94280D87E3898386E08A8391E0A9
:100F50009B8393E09C838D838FE08E838AE38F83D2
:100F60008BE388878FEF898749E050E0B701C6019E
:100F70000E94280DC6010E947E0EA6960FB6F89418
:100F8000DEBF0FBECDBFDF91CF911F910F91FF90BC
:100F9000EF90DF90CF90BF90AF909F908F907F9019
:100FA0000895CF92DF92EF92FF920F931F93CF930A
:100FB000DF936C017A018B01C0E0D0E0CE15DF0534
:100FC00089F0D8016D918D01D601ED91FC910190D0
:100FD000F081E02DC6010995892B11F47E0102C034
:100FE0002196ECCFC701DF91CF911F910F91FF9018
:100FF000EF90DF90CF900895FC01538D448D252F05
:1010000030E0842F90E0821B930B541710F0CF96A2
:10101000089501970895FC01918D828D981761F0D4
:10102000828DDF01A80FB11D5D968C91928D9F5F1F
:101030009F73928F90E008958FEF9FEF0895FC01CA
:10104000918D828D981731F0828DE80FF11D858D7D
:1010500090E008958FEF9FEF0895FC01918D228D10
:10106000892F90E0805C9F4F821B91098F73992795
:10107000089589EF92E00E942D0821E0892B09F460
:1010800020E0822F0895FC01848DDF01A80FB11D9F
:10109000A35ABF4F2C91848D90E001968F739927AE
:1010A000848FA689B7892C93A089B1898C9180649B
:1010B0008C93938D848D981306C00288F389E02D5C
:1010C00080818F7D80830895EF92FF920F931F930D
:1010D000CF93DF93EC0181E0888F9B8D8C8D9813EB
:1010E00005C0E889F989808185FD24C0F62E0B8D25
:1010F00010E00F5F1F4F0F731127E02E8C8DE81249
:101100000CC00FB607FCFACFE889F989808185FF0A
:10111000F5CFCE010E944308F1CF8B8DFE01E80F81
:10112000F11DE35AFF4FF0820B8FEA89FB89808122
:10113000806207C0EE89FF896083E889F989808130
:101140008064808381E090E0DF91CF911F910F91C7
:10115000FF90EF900895CF93DF93EC01888D882363
:10116000C9F0EA89FB89808185FD05C0A889B98914
:101170008C9186FD0FC00FB607FCF5CF808185FFEF
:10118000F2CFA889B9898C9185FFEDCFCE010E945D
:101190004308E7CFDF91CF91089580E090E0892B5D
:1011A00029F00E94390881110C94000008953FB77E
:1011B000F89480916B0290916C02A0916D02B091B5
:1011C0006E0226B5A89B05C02F3F19F00196A11D00
:1011D000B11D3FBFBA2FA92F982F8827820F911DCD
:1011E000A11DB11DBC01CD0142E0660F771F881F14
:1011F000991F4A95D1F708951F93CF93DF93182F26
:1012000066E270E00E94580EC82FD0E067E270E0FE
:10121000812F0E94580EDC2FCC279E01282BC9015C
:10122000DF91CF911F910895DC01ED91FC91019028
:10123000F081E02D09948F929F92AF92BF92CF924E
:10124000DF92EF92FF920F931F93CF93DF937C0176
:101250008B016C0182E0C80ED11C4701E5E08E0EC7
:10126000911CC0E0D0E0F60141916F0150E060E0D8
:1012700070E02AE0C8010E94400F5C016EE2C801E4
:101280000E9414098A0D9B1DC80FD91FC814D904C8
:1012900051F7F701458150E060E070E02AE0C801B5
:1012A0000E94400F8C0F9D1FDF91CF911F910F91D6
:1012B000FF90EF90DF90CF90BF90AF909F908F9076
:1012C00008956115710579F0FB0101900020E9F79F
:1012D0003197AF01461B570BDC01ED91FC91028069
:1012E000F381E02D099480E090E008952FEC31E047
:1012F000FC0131832083FB01408151816281738134
:10130000FC01428353836483758308951F920F9277
:101310000FB60F9211242F933F934F935F936F93C8
:101320007F938F939F93AF93BF93EF93FF9389EF37
:1013300092E00E944308FF91EF91BF91AF919F917E
:101340008F917F916F915F914F913F912F910F906E
:101350000FBE0F901F9018951F920F920FB60F920D
:1013600011242F938F939F93EF93FF93E0910903A1
:10137000F0910A038081E0910F03F091100382FD48
:1013800012C09081809112038F5F8F73209113039D
:10139000821751F0E0911203F0E0E750FD4F958F76
:1013A0008093120301C08081FF91EF919F918F91F3
:1013B0002F910F900FBE0F901F9018958E3008F050
:1013C0008E508770806480937C0080917A00806466
:1013D00080937A0080917A0086FDFCCF809178001E
:1013E0002091790090E0922B08958F929F92AF9276
:1013F000BF92CF92DF92EF92FF926B017C010E942D
:10140000D7084B015C01C114D104E104F104F1F0EF
:101410000E94D708DC01CB0188199909AA09BB09E8
:10142000883E9340A105B10570F321E0C21AD108AE
:10143000E108F10888EE880E83E0981EA11CB11C1B
:10144000C114D104E104F10419F7DDCFFF90EF904E
:10145000DF90CF90BF90AF909F908F9008952FB75F
:10146000F89460916702709168028091690290918E
:101470006A022FBF08951F920F920FB60F92112488
:101480002F933F938F939F93AF93BF938091670266
:1014900090916802A0916902B0916A02309166024F
:1014A00023E0230F2D3720F40196A11DB11D05C0A7
:1014B00026E8230F0296A11DB11D2093660280939A
:1014C000670290936802A0936902B0936A028091C8
:1014D0006B0290916C02A0916D02B0916E02019628
:1014E000A11DB11D80936B0290936C02A0936D02BD
:1014F000B0936E02BF91AF919F918F913F912F91C9
:101500000F900FBE0F901F9018952A9A08952A9851
:1015100008951F93CF93DF93182F60E270E00E942D
:10152000580EC82FD0E061E270E0812F0E94580E63
:10153000DC2FCC279E01282BC901DF91CF911F9171
:1015400008958EBD00000DB407FEFDCF8EB5089541
:10155000CF92DF92EF92FF920F931F93CF93DF937F
:10156000EC017A018B016C01C40ED51ECC15DD0592
:10157000A9F00E94870A8FE00E94A10A8D2F0E9485
:10158000A10A8C2F0E94A10A219680E00E94A10A44
:10159000F80181938F010E94850AE8CFC701DF918E
:1015A000CF911F910F91FF90EF90DF90CF90089512
:1015B000CF92DF92EF92FF920F931F93CF93DF931F
:1015C000EC017A018B016C01C40ED51ECC15DD0532
:1015D000A1F00E94870A80EF0E94A10A8D2F0E942D
:1015E000A10A8C2F0E94A10A2196F80181918F01F6
:1015F0000E94A10A0E94850AE9CFC701DF91CF911D
:101600001F910F91FF90EF90DF90CF9008951F935F
:10161000CF93DF9300D0CDB7DEB7182F6A839983BD
:101620000E94870A80EF0E94A10A9981892F0E9457
:10163000A10A812F0E94A10A6A81862F0E94A10A15
:101640000E94850A81E00F900F90DF91CF911F914A
:1016500008951F93CF93DF9300D0CDB7DEB7182F37
:1016600080E590E069837A830E94F40021E041E004
:1016700050E069817A81812F0E9430120E94F3002C
:1016800081E090E00F900F90DF91CF911F9108952E
:10169000FF920F931F93CF93DF93F82E80E590E096
:1016A0000E94F400C0E0D0E08F2D0E94FC088C0165
:1016B000892B21F08F2D0E94FC08EC01C017D10767
:1016C00099F70E94F300CE01DF91CF911F910F9106
:1016D000FF900895AF92BF92CF92DF92EF92FF9268
:1016E0001F93CF93DF93182F5B017A0180E590E081
:1016F0000E94F400C0E0D0E0812F0E94FC086C0141
:10170000892B21F0812F0E94FC08EC01CC15DD050E
:1017100099F7209799F463E070E0812F0E94580EAA
:101720008431F1F08823E1F0C1E0D0E08C3111F494
:10173000C0E0D0E0D195C195D10912C0EC16FD06EC
:101740000CF4E7011C161D065CF420E0AE01B501A7
:10175000812F0E94301260E470E0812F0E94671098
:101760000E94F300CE01DF91CF911F91FF90EF9087
:10177000DF90CF90BF90AF9008951F93CF93DF93EA
:101780001F92CDB7DEB7182F80E590E00E94F400DD
:1017900063E070E0812F0E94580E89830E94F3005D
:1017A00089810F90DF91CF911F9108959B0190E067
:1017B0000496982F8827642F820F931F0C94070B91
:1017C000CF93C82F80E590E00E94F40060E170E0C4
:1017D0008C2F0E9467104FEF62E070E08C2F0E9408
:1017E000D60BCF910C94F300CF93DF93EC01898D4E
:1017F0009A8D892B41F0E881F9810284F385E02DEF
:10180000CE010995F4CFDF91CF910895CF93DF9367
:101810001F92CDB7DEB76983DC01ED91FC910280A8
:10182000F381E02D41E050E0BE016F5F7F4F0995ED
:101830000F90DF91CF910895FC01818D928D0895D5
:10184000FC018589968908952FEC31E0FC013183F4
:101850002083FB014189528963897489FC01428399
:101860005383648375830895DC01ED91FC91048CAE
:10187000F58DE02D099480E00895FC019485FB012D
:101880008485981303C081E0943009F480E00895C2
:1018900021E0FC018485843009F420E0822F089542
:1018A0000895CF93DF931F92CDB7DEB7FC01218D52
:1018B000328D232B49F0BE016F5F7F4F84850E94DC
:1018C000290B898190E002C08FEF9FEF0F90DF918D
:1018D000CF9108950F931F93CF93DF931F92CDB7AE
:1018E000DEB78C01DC01ED91FC910084F185E02DE7
:1018F0000995892B51F0BE016F5F7F4FF8018485F8
:101900000E94290B898190E002C08FEF9FEF0F901A
:10191000DF91CF911F910F910895CF93DF93FC0139
:10192000218D328D2115310519F48FEF9FEF11C0F4
:10193000EC014217530708F0A9018C850E946A0B3D
:101940001816190694F7298D3A8D281B390B3A8FF2
:10195000298FDF91CF9108950F931F93CF93DF933A
:101960001F92CDB7DEB7FC01218D328D232B61F0A4
:101970008C0141E050E0BE016F5F7F4F84850E9483
:101980006A0B181619061CF08FEF9FEF08C0F801BC
:10199000818D928D0197928F818F898190E00F9038
:1019A000DF91CF911F910F9108950F931F93CF93C4
:1019B000DF93CDB7DEB728970FB6F894DEBF0FBE22
:1019C000CDBF8C01DC01ED91FC910680F781E02D0B
:1019D0000995F80184850E94480B181619065CF5D4
:1019E00048E050E0BE016F5F7F4FD8011C968C919C
:1019F0000E946A0B9C0118161906DCF489819A81F1
:101A0000AB81BC81F801818B928BA38BB48B8D81D0
:101A100090E0982F88272E81820F911D968B858BC1
:101A20002F8130E0322F22278885280F311D328FF9
:101A3000218FC90102C080E090E028960FB6F8948B
:101A4000DEBF0FBECDBFDF91CF911F910F910895E3
:101A5000AF92BF92CF92DF92FF920F931F93CF93DB
:101A6000DF938C015B01EA01FC01C788D08CF48410
:101A700080E590E00E94F4008F2D0E94FD128C17EB
:101A80009D0720F48F2D0E94FD12EC019E01A501FF
:101A9000B6018F2D0E9498120E94F300F8018789E9
:101AA000908D8C0F9D1F908F878BCE01DF91CF91F2
:101AB0001F910F91FF90DF90CF90BF90AF9008954E
:101AC000EF92FF921F93CF93DF93EB017A01FC011A
:101AD000108E178A14858A81811109C08B8181112A
:101AE00006C08C81811103C08D81882329F1E11406
:101AF000F10411F180E590E00E94F400BE016E5FF8
:101B00007F4F812F90E0982F882744E050E0845F3A
:101B10009B4F0E94D80A4F2D60E170E0812F0E94F8
:101B2000D60B4E2D61E170E0812F0E94D60B0E94F2
:101B3000F30081E090E002C080E090E0DF91CF917F
:101B40001F91FF90EF900895CF92DF92EF92FF9256
:101B50000F931F93CF93DF93CDB7DEB7AF970FB639
:101B6000F894DEBF0FBECDBF7C016A010FEC11E01F
:101B70001A8309831C861B8688EE93E0A0E0B0E000
:101B80008D879E87AF87B88B81E591E09A8789879B
:101B900084E08D8B198F088F1A8E1B8E1C8E1D8EE4
:101BA0001DA30CA31EA21FA218A619A6809198031C
:101BB00090919903A0919A03B0919B038CA79DA744
:101BC000AEA7BFA78B839C83AD83BE8318861F827D
:101BD000AE014C5D5F4FCE0101960E940202813042
:101BE0009105B1F4D701ED91FC910488F589E02DC0
:101BF0001BA70AA78EA19FA1A8A5B9A58CA79DA7E1
:101C0000AEA7BFA7A601BE01665D7F4FC7010995BC
:101C1000AF960FB6F894DEBF0FBECDBFDF91CF9168
:101C20001F910F91FF90EF90DF90CF900895CF9389
:101C3000DF93EC018C85843061F00E94E00BEC8531
:101C4000F0E0EE0FFF1FE159FD4F1182108284E09A
:101C50008C87DF91CF910895EF92FF921F93CF93DE
:101C6000DF93FC012485243011F080E01BC07B0150
:101C7000EC0110E0812F0E94BD0B811102C01C8776
:101C800005C08831E1F31F5F1430A1F78C858430E3
:101C900061F3FE86ED861A8E198EA70162E00E941E
:101CA000771081E0DF91CF911F91FF90EF90089521
:101CB0000F931F93CF93DF931F92CDB7DEB790E0C2
:101CC0000496982F88278C01060F171F0E94870AF9
:101CD0008FE00E94A10A812F0E94A10A802F0E94FA
:101CE000A10A80E00E94A10A89830E94850A898155
:101CF0000F90DF91CF911F910F910895CF93FC0129
:101D0000C48580E590E00E94F40060E270E08C2FD2
:101D10000E94671062E070E08C2F0E94580E84FDD4
:101D200019C062E070E08C2F0E94580E83FF0BC038
:101D300048E162E070E08C2F0E94D60B0E94F30015
:101D400080E090E011C00E94F30080E590E00E94E6
:101D5000F400E0CF40E162E070E08C2F0E94D60BEF
:101D60000E94F30081E090E0CF910895FC0184850A
:101D7000843011F00C94BD0B80E00895CF93DF9375
:101D8000FC0124852430D1F0EC010E94B60E843190
:101D900081F0882371F0883161F08C3161F4E88141
:101DA000F9810084F185E02DCE01099521E0892B90
:101DB00019F420E001C021E0822F01C080E0DF9112
:101DC000CF910895CF92DF92EF92FF921F93CF931E
:101DD000DF93FC0114851430A9F1EC0180E590E05B
:101DE0000E94F40068E070E0812F0E9467100E945A
:101DF000F3000E942F0A6B017C01CE010E94B60EF7
:101E00008823B1F061E070E080E090E00E94F50985
:101E10000E942F0ADC01CB018C199D09AE09BF0974
:101E2000883E9340A105B10540F38C850E94E00BEC
:101E3000EC85F0E0EE0FFF1FE159FD4F118210829B
:101E400084E08C87DF91CF911F91FF90EF90DF901E
:101E5000CF9008950F931F93CF93DF93EC010E94CF
:101E600061098C016EED71E0CE010E946109800F65
:101E7000911FDF91CF911F910F9108950E946E1ACB
:101E80004F925F926F927F92EF92FF920F931F9308
:101E9000CF93DF93CDB7DEB7A1970FB6F894DEBF2F
:101EA0000FBECDBF7C01FA01CB0119A2223008F48C
:101EB0002AE08E010F5D1F4F422E512C612C712C98
:101EC000BF01A30192010E94F417F901CA01015058
:101ED00011096A3014F4605D01C0695CD8016C932B
:101EE000232B242B252B61F7B801C7010E94610920
:101EF000A1960FB6F894DEBF0FBECDBFDF91CF9194
:101F00001F910F91FF90EF907F906F905F904F9097
:101F100008954F925F926F927F928F929F92AF92AD
:101F2000BF92CF92DF92EF92FF926B017C01B42EB1
:101F30009B01AC010E945C1A882319F06AE572E0EB
:101F400027C026013701E89477F82FEF3FEF4FE7DE
:101F50005FE7C301B2010E945C1A81110DC02FEF2F
:101F60003FEF4FE75FE7C301B2010E9492181816D6
:101F70001CF46EE572E00CC02FEF3FEF4FE75FE41B
:101F8000C701B6010E94EA19181694F462E672E0DD
:101F900084EA93E0FF90EF90DF90CF90BF90AF90F6
:101FA0009F908F907F906F905F904F900C946109FD
:101FB0002FEF3FEF4FE75FECC701B6010E94921889
:101FC00087FDE4CF20E030E0A901C701B6010E94FF
:101FD000921887FF0BC06DE284EA93E00E94140917
:101FE0004C01F7FAF094F7F8F09402C0812C912C90
:101FF000A12C60E070E080E09FE3AB1441F020E0B2
:1020000030E040E251E40E949718A394F6CF9B0180
:10201000AC01C701B6010E9426182B013C010E94A9
:1020200009196B017C010E9438199B01AC01C301A5
:10203000B2010E9425182B013C012AE0B701A6013C
:1020400084EA93E00E94400F7C01E80CF91CBB205D
:1020500039F06EE284EA93E00E941409E80EF91E5A
:10206000DB2CDD2031F120E030E040E251E4C3011F
:10207000B2010E94EF192B013C010E9409194B018A
:10208000A12CB12C2AE0B501A40184EA93E00E94BE
:10209000400FE80EF91EC501B4010E9438199B01DA
:1020A000AC01C301B2010E9425182B013C01DA9456
:1020B000D8CFC701FF90EF90DF90CF90BF90AF9047
:1020C0009F908F907F906F905F904F900895CF93E7
:1020D000C82F462F61E070E00E94D60B61E070E0EF
:1020E0008C2F0E94580E8111F9CFCF910895FF9245
:1020F0000F931F93CF93DF931F92CDB7DEB7F82EC8
:102100008A0169830E94E00B80E590E00E94F40060
:102110006981462F60E070E08F2D0E94D60B01157B
:10212000110551F40091BD031091BE030F5F1F4FC5
:102130001093BE030093BD03412F64E070E08F2D28
:102140000E94D60B402F65E070E08F2D0E94D60BC9
:1021500061E070E08F2D0E9467100E94F30081E023
:102160000F90DF91CF911F910F91FF90089590E014
:10217000FC01E057FF4F2491FC01E458FF4F84918C
:10218000882399F090E0880F991FFC01EE58FF4FCB
:10219000A591B491FC01E859FF4F859194918FB7B7
:1021A000F894EC91E22BEC938FBF0895CF936CE2FF
:1021B00071E080E090E00E94F509CFB7F89480913B
:1021C000E903811163C086E890E0FC0124914AE9AB
:1021D00050E0FA01649130E0220F331F2E583F4F38
:1021E000F901A591B4912C91622309F040C0EEEA67
:1021F000F0E02491FA014491FC0194919923B9F102
:10220000222339F1233091F038F42130A9F0223023
:1022100001F584B58F7D12C0273091F02830A1F0F0
:102220002430B9F4809180008F7D03C080918000BC
:102230008F77809380000DC084B58F7784BD09C0EF
:102240008091B0008F7703C08091B0008F7D809324
:10225000B000E92FF0E0EE0FFF1FE859FF4FA59106
:10226000B4918FB7F8949C91492B4C938FBF8AE01F
:102270000E94B7108CB580618CBD8CB580648CBD1C
:102280008DE00E94B7108BE00E94B7108091E903A7
:102290008F5F8093E903CFBF229A80E590E00E9490
:1022A000F40060E880E090E00E94070B65E58BE1B8
:1022B00090E00E94070B65E58AE190E00E94070B21
:1022C0000E94F30080E090E49093EA028093E90298
:1022D00080E090E69093F2028093F10280E098E42F
:1022E0009093EC028093EB0280E098E69093F402E6
:1022F0008093F30280E090E59093EE028093ED02EC
:1023000080E090E79093F6028093F50280E098E5F4
:102310009093F0028093EF0280E098E79093F802A8
:102320008093F702CF9108951F93CF93DF93CDB79A
:10233000DEB7C254D1090FB6F894DEBF0FBECDBFD1
:10234000FC0182819381A481B58123968CAF9DAFDE
:10235000AEAFBFAF239711E023961FAF239723960D
:102360004CAD5DAD6EAD7FAD23974BAB5CAB6DAB54
:102370007EAB8DA79EA7AFA7B8AB18AB4DA55EA54A
:102380006FA578A94FA358A769A77AA71EAB4BA939
:102390005CA96DA97EA949A35AA36BA37CA32FECCA
:1023A00031E03C8B2B8B4FEF4D8B4E8B4F8B188E30
:1023B0003E872D871AA74FA158A569A57AA54F87F3
:1023C000588B698B7A8B1CA349A15AA16BA17CA164
:1023D00049875A876B877C873A8329838B839C83C1
:1023E000AD83BE830E94D61080E590E00E94F40089
:1023F00046E050E06BE171E089E090E00E94D80A8D
:10240000CE0103960E94EC0044E050E0BE01615F03
:102410007F4F81E090E00E94D80A44E050E0BE0186
:102420006B5E7F4F85E090E00E94D80A0E94F30027
:102430001C8789859A85AB85BC858093980390938A
:102440009903A0939A03B0939B03CE5BDF4F0FB623
:10245000F894DEBF0FBECDBFDF91CF911F910895DD
:102460008F929F92AF92BF92CF92DF92EF92FF92A4
:102470000F931F93CF93DF93B82E4B018A01A22EA7
:1024800068E270E00E94580EC82FD0E069E270E068
:102490008B2D0E94580EDC2FCC27C82B9E01377045
:1024A000CB2CD12CC601880F991FAC014F505D4F2A
:1024B0006A01FA0180819181820F931FA801420F66
:1024C000531F4130584098F060E078E07B01E21AF9
:1024D000F30AA701B4010E94A80AA8014E195F09D6
:1024E000B4016E0D7F1DF6018081918102C0A801AB
:1024F000B4010E94A80AA1100EC0C00FD11F4D2F19
:1025000068E270E08B2D0E94D60B4C2F69E270E0E0
:102510008B2D0E94D60BDF91CF911F910F91FF90D1
:10252000EF90DF90CF90BF90AF909F908F900895E5
:102530009F92AF92BF92CF92DF92EF92FF920F9352
:102540001F93CF93DF93982E8B015A01690164E2A8
:1025500070E00E94580EE82EF12C65E270E0892DA3
:102560000E94580EFE2CEE24E82AE701C00FD11F6E
:102570009E013770E92CF12CC701880F991FAC011F
:1025800047515D4F7A01FA0180819181820F931F3B
:10259000A9014C0D5D1D4130584090F000E018E05D
:1025A000021B130BA801B5010E94D80AA601401B0B
:1025B000510BB501600F711FF7018081918102C03D
:1025C000A601B5010E94D80ACC0DDD1D4D2F64E295
:1025D00070E0892D0E94D60B4C2F65E270E0892DAA
:1025E000DF91CF911F910F91FF90EF90DF90CF90EF
:1025F000BF90AF909F900C94D60BFF920F931F93B8
:10260000CF93DF93F82EC0E0D0E08F2D0E94890A8F
:102610008C01892B21F08F2D0E94890AEC01C017B3
:10262000D10799F7CE01DF91CF911F910F91FF90C4
:102630000895CF93DF93CDB7DEB729970FB6F894FF
:10264000DEBF0FBECDBF789484B5826084BD84B5F3
:10265000816084BD85B5826085BD85B5816085BD9D
:1026600080916E00816080936E0010928100809155
:1026700081008260809381008091810081608093DD
:102680008100809180008160809380008091B10002
:1026900084608093B1008091B00081608093B0002D
:1026A00080917A00846080937A0080917A008260C1
:1026B00080937A0080917A00816080937A00809183
:1026C0007A00806880937A001092C100E09109033B
:1026D000F0910A0382E08083E0910503F091060304
:1026E0001082E0910703F09108038FEC8083109231
:1026F0001103E0910D03F0910E0386E08083E091D9
:102700000B03F0910C03808180618083E0910B03C7
:10271000F0910C03808188608083E0910B03F0913D
:102720000C03808180688083E0910B03F0910C039F
:1027300080818F7D80838091D90281112AC010927F
:10274000C1021092C00288EE93E0A0E0B0E0809356
:10275000C2029093C302A093C402B093C50281E564
:1027600091E09093BF028093BE0284E08093CA02FE
:102770008FEC91E09093CE028093CD021092CF0225
:102780001092D0021092D1021092D20281E0809376
:10279000D90287E792E090939D0380939C030E9467
:1027A000D61080E590E00E94F40046E050E06BE136
:1027B00071E089E090E00E94D80A8FEC91E09A8362
:1027C00089831B821C821D821E82CE0103960E9479
:1027D000EC000E94F30000919C0310919D03D8012E
:1027E00092961D921D921D921C929597F80116A229
:1027F00017A210A611A69A961D921D921D921C92C8
:102800009D9716AA17AA10AE11AE80E69AEEA0E028
:10281000B0E082AF93AFA4AFB5AF1801FEE32F0EC7
:10282000311C80EA9FE0A0E0B0E0F1018083918359
:10283000A283B383D801189686E0FD01982F1192E8
:102840009A95E9F79801225F3F4F94E1F9011192BF
:102850009A95E9F7EBE1F1E001900D928A95E1F7A5
:102860004801F6E48F0E911CD4011C920E94B4170B
:102870002FEC37E040E050E00E94C217DC01CB01B2
:102880000196A11DB11DF80184839583A683B783AA
:1028900080839183A283B3835801F7E4AF0EB11C08
:1028A000C5010E94170E64E470E0C5010E942C0E61
:1028B00081111BC061EE71E089EF92E00E942A0F46
:1028C0008FEC91E09A8389838091B3039091B40354
:1028D000A091B503B091B6038B839C83AD83BE8377
:1028E000CE0101960E94941178C10E942F0A2B01FB
:1028F0003C01198618861F8248EEC42E43E0D42E70
:10290000E12CF12CD4018C91833009F4FCC08111AD
:102910001FC0F80184819581A681B7810196A11D10
:10292000B11D84839583A683B7830E942F0A6419FF
:10293000750986099709A70196010E94F417A90154
:1029400061E0C8010E94C30681E0D4018C93BDC040
:102950008430F9F4F80184819581A681B7810196CC
:10296000A11DB11D84839583A683B7830E942F0A7E
:102970006419750986099709A70196010E94F41741
:10298000A90163E0C8010E94C306E2E0D401EC9310
:102990009CC0813059F5D1014D915D916D917C9133
:1029A0009E012F5F3F4FC8010E94F7048F83823042
:1029B00009F08BC089819A81AB81BC81F801848345
:1029C0009583A683B7830E942F0A64197509860927
:1029D0009709A70196010E94F417A90163E0C801B5
:1029E0000E94C306EF81D401EC9375C0823009F0D8
:1029F0006CC0D1014D915D916D917C919E012F5FD5
:102A00003F4FC8010E94F7048F83853009F057C0FB
:102A100083E0F4018083F80182A193A1A4A1B5A170
:102A2000892B8A2B8B2B41F484E893E0A0E0B0E063
:102A300082A393A3A4A3B5A3F80186A197A1A0A5FF
:102A4000B1A5892B8A2B8B2B61F482A193A1A4A120
:102A5000B5A1B695A7959795879586A397A3A0A7A7
:102A6000B1A7D8019A964D915D916D917C919D97FA
:102A700096968D919D910D90BC91A02D452B462B46
:102A8000472B59F4AC01BD01440F551F661F771F3A
:102A9000F80142A753A764A775A7F80186A797A7CF
:102AA000A0ABB1AB82A593A5A4A5B5A582AB93AB12
:102AB000A4ABB5AB81E090E0998788870CC09F817B
:102AC000963019F4D4011C9206C0BF81BF3F19F49F
:102AD000F40110821F8288859985019709F412CF2D
:102AE0000E942F0ADC01CB0184199509A609B709B8
:102AF000F80122AD33AD44AD55AD281739074A076B
:102B00005B0708F0FFCEC5010E94170EF801848113
:102B10009581A681B7810196A11DB11D84839583FE
:102B2000A683B78388859985019709F051C080E510
:102B300090E00E94F40060919C0370919D03625F9D
:102B40007F4FCE0101960E947609CE0103960E9426
:102B5000EC0060919C0370919D036A5E7F4FCE01F3
:102B600001960E94760944E050E0BE016D5F7F4F00
:102B700081E090E00E94D80A60919C0370919D03CF
:102B80006E5E7F4FCE0101960E94760944E050E0D0
:102B9000BE016D5F7F4F85E090E00E94D80A0E94E1
:102BA000F30060919C0370919D03625E7F4FCE01A4
:102BB00001960E9476098B819C81AD81BE818093B4
:102BC000980390939903A0939A03B0939B0305C035
:102BD000A885B985AB2B09F46DCE68EE73E080E073
:102BE00090E00E94F50969E072E089EF92E00E94AE
:102BF0002A0F0FEC11E084EA93E00E94E300892B96
:102C000049F084EA93E00E94C900682F89EF92E0BE
:102C10000E94140984EA93E00E94BE0E8111B7C09D
:102C200084EA93E00E94E20E60E777E180E090E0C2
:102C30000E94F5098FE00E94DE09BC01990F880B04
:102C4000990B0E943A1920E030E048EC52E40E94CF
:102C5000EF1920E030EC4FE754E40E94971820E091
:102C600030E040EA50E40E9426186093E502709339
:102C7000E6028093E7029093E8028EE00E94DE096C
:102C8000BC01990F880B990B0E943A1920E030E0A3
:102C900048EC52E40E94EF1920E030EC4FE754E496
:102CA0000E94971820E030E040EA50E40E94261885
:102CB0006093E1027093E2028093E3029093E40256
:102CC0001A8309838091B9039091BA03A091BB0341
:102CD000B091BC038B839C83AD83BE8340E550E001
:102CE000BE016F5F7F4F84EA93E00E946B01892BE6
:102CF00009F447C067E172E084EA93E00E94610949
:102D00006FE272E084EA93E00E94610966E171E09B
:102D100084EA93E00E94610964E372E084EA93E04C
:102D20000E9461096091E5027091E6028091E702DC
:102D30009091E80242E00E94890F69E372E084EA20
:102D400093E00E9461096091E1027091E20280913A
:102D5000E3029091E40242E00E94890F6EE372E088
:102D600084EA93E00E942A0F62E071E084EA93E033
:102D70000E942A0F6EED71E084EA93E00E946109DF
:102D800006C068E472E089EF92E00E942A0F0E9478
:102D9000CD0831CFEFEBF3E08FEC91E091838083AE
:102DA0001282138214821582E9EFF2E013821282FA
:102DB00048EE53E060E070E0448355836683778398
:102DC00029E731E03183208325EC30E03587248703
:102DD00024EC30E03787268720EC30E0318B208BE5
:102DE00021EC30E0338B228B22EC30E0358B248BCE
:102DF00026EC30E0378B268B118E128E138E148EBC
:102E0000E5ECF3E0918380831282138214821582B1
:102E1000EBECF3E09183808312821382148215829B
:102E2000E1EDF3E091838083128213821482158294
:102E3000E7EDF3E09183808312821382148215827E
:102E4000E6E9F3E091838083128213821482158273
:102E5000EEE9F3E09183808312821382148215825B
:102E6000EDEDF3E091838083128213821482158248
:102E7000E3EEF3E091838083128213821482158241
:102E8000E7EBF3E09183808322E522832CE1238327
:102E90002AEB24832BED2583E1EBF3E09183808300
:102EA00080EC828388EA838314828CE88583E4EA59
:102EB000F3E013821282448355836683778389EA21
:102EC00091E09183808384E0848708958F929F921C
:102ED000AF92BF92CF92DF92EF92FF92CF93DF93A8
:102EE000EC01688179818A819B8161157105810579
:102EF000910521F464E279ED8BE597E02DE133EF64
:102F000041E050E00E94C21749015A019B01AC0107
:102F1000A7EAB1E40E94E1176B017C01ACEEB4EFCB
:102F2000A50194010E94EF17DC01CB018C0D9D1DC2
:102F3000AE1DBF1DB7FF03C00197A109B04888832C
:102F40009983AA83BB83BC01CD019F77DF91CF9189
:102F5000FF90EF90DF90CF90BF90AF909F908F90B9
:102F600008950E946617089581E291E00E94661715
:102F7000089560932101709322018093230190931F
:102F800024010895052E97FB1EF400940E94D91782
:102F900057FD07D00E94F41707FC03D04EF40C94A1
:102FA000D91750954095309521953F4F4F4F5F4F22
:102FB000089590958095709561957F4F8F4F9F4FA5
:102FC00008950E941618A59F900DB49F900DA49F80
:102FD000800D911D11240895B7FF0C94E1170E94F4
:102FE000E117821B930B0895A1E21A2EAA1BBB1BAB
:102FF000FD010DC0AA1FBB1FEE1FFF1FA217B307C5
:10300000E407F50720F0A21BB30BE40BF50B661FDA
:10301000771F881F991F1A9469F76095709580959E
:1030200090959B01AC01BD01CF010895A29FB00115
:10303000B39FC001A39F700D811D1124911DB29FEC
:10304000700D811D1124911D08955058BB27AA278A
:103050000E943D180C94B0190E94A21938F00E94E9
:10306000A91920F039F49F3F19F426F40C949F1904
:103070000EF4E095E7FB0C949919E92F0E94C11911
:1030800058F3BA17620773078407950720F079F49D
:10309000A6F50C94E3190EF4E0950B2EBA2FA02D93
:1030A0000B01B90190010C01CA01A0011124FF27F5
:1030B000591B99F0593F50F4503E68F11A16F040F0
:1030C000A22F232F342F4427585FF3CF46953795EF
:1030D0002795A795F0405395C9F77EF41F16BA0BB4
:1030E000620B730B840BBAF09150A1F0FF0FBB1F62
:1030F000661F771F881FC2F70EC0BA0F621F731FAB
:10310000841F48F4879577956795B795F7959E3F07
:1031100008F0B0CF9395880F08F09927EE0F979598
:10312000879508950E94751908F481E008950E941A
:10313000AB180C94B0190E94A91958F00E94A2195A
:1031400040F029F45F3F29F00C94991951110C9427
:10315000E4190C949F190E94C11968F39923B1F3E3
:10316000552391F3951B550BBB27AA2762177307AD
:10317000840738F09F5F5F4F220F331F441FAA1F41
:10318000A9F335D00E2E3AF0E0E832D091505040FD
:10319000E695001CCAF72BD0FE2F29D0660F771FAB
:1031A000881FBB1F261737074807AB07B0E809F091
:1031B000BB0B802DBF01FF2793585F4F3AF09E3F16
:1031C000510578F00C9499190C94E4195F3FE4F3DD
:1031D000983ED4F3869577956795B795F7959F5F59
:1031E000C9F7880F911D9695879597F90895E1E0A5
:1031F000660F771F881FBB1F621773078407BA0704
:1032000020F0621B730B840BBA0BEE1F88F7E0955E
:1032100008950E94C91988F09F5798F0B92F9927EF
:10322000B751B0F0E1F0660F771F881F991F1AF0B1
:10323000BA95C9F714C0B13091F00E94E319B1E01A
:1032400008950C94E319672F782F8827B85F39F019
:10325000B93FCCF3869577956795B395D9F73EF44A
:1032600090958095709561957F4F8F4F9F4F0895F2
:10327000E89409C097FB3EF4909580957095619510
:103280007F4F8F4F9F4F9923A9F0F92F96E9BB27C6
:103290009395F695879577956795B795F111F8CF42
:1032A000FAF4BB0F11F460FF1BC06F5F7F4F8F4FAD
:1032B0009F4F16C0882311F096E911C0772321F0A3
:1032C0009EE8872F762F05C0662371F096E8862F3B
:1032D00070E060E02AF09A95660F771F881FDAF792
:1032E000880F9695879597F90895990F0008550FBF
:1032F000AA0BE0E8FEEF16161706E807F907C0F07C
:1033000012161306E407F50798F0621B730B840B83
:10331000950B39F40A2661F0232B242B252B21F45D
:1033200008950A2609F4A140A6958FEF811D811DFD
:10333000089597F99F6780E870E060E008959FEF37
:1033400080EC089500240A9416161706180609063C
:10335000089500240A94121613061406050608950B
:10336000092E0394000C11F4882352F0BB0F40F493
:10337000BF2B11F460FF04C06F5F7F4F8F4F9F4FD3
:10338000089557FD9058440F551F59F05F3F71F055
:103390004795880F97FB991F61F09F3F79F08795BC
:1033A0000895121613061406551FF2CF4695F1DF45
:1033B00008C0161617061806991FF1CF86957105D5
:1033C000610508940895E894BB2766277727CB0109
:1033D00097F908950E94751908F48FEF08950E94D7
:1033E000021A0C94B0190E94A21938F00E94A9196F
:1033F00020F0952311F00C9499190C949F19112425
:103400000C94E4190E94C11970F3959FC1F3950FB4
:1034100050E0551F629FF001729FBB27F00DB11D58
:10342000639FAA27F00DB11DAA1F649F6627B00DE8
:10343000A11D661F829F2227B00DA11D621F739FD1
:10344000B00DA11D621F839FA00D611D221F749FDF
:103450003327A00D611D231F849F600D211D822F26
:10346000762F6A2F11249F5750409AF0F1F088234D
:103470004AF0EE0FFF1FBB1F661F771F881F91507A
:103480005040A9F79E3F510580F00C9499190C9477
:10349000E4195F3FE4F3983ED4F3869577956795FA
:1034A000B795F795E7959F5FC1F7FE2B880F911DA4
:1034B0009695879597F908950E947519880B990B31
:1034C00008956927962769277827872778270895F9
:1034D000EE0FFF1F0590F491E02D099481E090E03C
:1034E000F8940C94871AFB01DC0104C08D910190C3
:1034F000801921F441505040C8F7881B990B08955A
:10350000FB01DC0101900D920020E1F70895F89491
:02351000FFCFEB
:1035120000C0484F53543A2038322E32382E3138B8
:10352200362E32313900616161610000ABCBCDDEF4
:103532000201000000000000003E0F3E0FAD003E01
:103542000F3E0F3E0F3E0F3E0F3B0C3E0F3E0F3E17
:103552000F3E0F3E0F3E0F3E0F3E0F3E0F0000008C
:1035620000060C280DAD00F40B1C0CAC0C510C2CFD
:103572000E3B0C170E600DA40D7E0ED50C8D0C3477
:103582000C240C200C000000006408D107FC07ABDF
:10359200082D080B081F08000000003E0FD107ADE0
:1035A20000AC003E0F3E0F3E0F000000003E0FD168
:1035B20007AD00AC00000000008700F700AD00502E
:1035C2000CE300C9006A0C6B018404C500E20EBE64
:1035D2000E480CA900A7003D0C9D00000000001B36
:1035E20009000000003E0F57495A6E6574000D0A2B
:1035F200004661696C656420746F20636F6E666952
:10360200677572652045746865726E65742075739E
:10361200696E67204448435000636F6E6E65637441
:10362200696E672E2E2E00474554202F73682F7225
:1036320065636976655F646174612E706870003FCE
:10364200756E3D002674693D0026746F3D0020486A
:103652005454502F312E3000636F6E6E656374695F
:103662006F6E206661696C6564006E616E00696EE2
:0636720066006F766600A1
:107E0000112484B714BE81FFF0D085E080938100F7
:107E100082E08093C00088E18093C10086E0809377
:107E2000C20080E18093C4008EE0C9D0259A86E02C
:107E300020E33CEF91E0309385002093840096BBD3
:107E4000B09BFECF1D9AA8958150A9F7CC24DD24C4
:107E500088248394B5E0AB2EA1E19A2EF3E0BF2EE7
:107E6000A2D0813461F49FD0082FAFD0023811F036
:107E7000013811F484E001C083E08DD089C08234E0
:107E800011F484E103C0853419F485E0A6D080C0E4
:107E9000853579F488D0E82EFF2485D0082F10E0AE
:107EA000102F00270E291F29000F111F8ED06801E7
:107EB0006FC0863521F484E090D080E0DECF843638
:107EC00009F040C070D06FD0082F6DD080E0C81688
:107ED00080E7D80618F4F601B7BEE895C0E0D1E017
:107EE00062D089930C17E1F7F0E0CF16F0E7DF06D8
:107EF00018F0F601B7BEE89568D007B600FCFDCFD4
:107F0000A601A0E0B1E02C9130E011968C91119780
:107F100090E0982F8827822B932B1296FA010C0160
:107F200087BEE89511244E5F5F4FF1E0A038BF0790
:107F300051F7F601A7BEE89507B600FCFDCF97BE46
:107F4000E89526C08437B1F42ED02DD0F82E2BD052
:107F50003CD0F601EF2C8F010F5F1F4F84911BD097
:107F6000EA94F801C1F70894C11CD11CFA94CF0C13
:107F7000D11C0EC0853739F428D08EE10CD085E9AC
:107F80000AD08FE07ACF813511F488E018D01DD067
:107F900080E101D065CF982F8091C00085FFFCCF94
:107FA0009093C60008958091C00087FFFCCF809118
:107FB000C00084FD01C0A8958091C6000895E0E648
:107FC000F0E098E1908380830895EDDF803219F02E
:107FD00088E0F5DFFFCF84E1DECF1F93182FE3DFCA
:107FE0001150E9F7F2DF1F91089580E0E8DFEE27F6
:047FF000FF270994CA
:027FFE00040479
:0400000300007E007B
:00000001FF
